:020000040800F2
:1000000000500020ED0D00083D0E00083D0E0008D8
:100010003D0E00083D0E00083D0E000800000000E7
:100020000000000000000000000000003D0E00087D
:100030003D0E0008000000003D0E00083D0E0008C7
:100040003D0E00083D0E00083D0E00083D0E000864
:100050003D0E00083D0E00083D0E00083D0E000854
:100060003D0E00083D0E00083D0E00083D0E000844
:100070003D0E00083D0E00083D0E00083D0E000834
:100080003D0E00083D0E00083D0E00083D0E000824
:100090003D0E00083D0E00083D0E00083D0E000814
:1000A0003D0E00083D0E00083D0E00083D0E000804
:1000B0003D0E00083D0E00083D0E00083D0E0008F4
:1000C0003D0E00083D0E00083D0E00083D0E0008E4
:1000D0003D0E00083D0E00083D0E00083D0E0008D4
:1000E0003D0E00083D0E0008000000003D0E000817
:1000F0003D0E00083D0E00083D0E00083D0E0008B4
:100100003D0E00083D0E00083D0E00083D0E0008A3
:100110003D0E00083D0E00083D0E00083D0E000893
:100120003D0E00083D0E00083D0E00083D0E000883
:1001300010B5054C237833B9044B13B10448AFF321
:1001400000800123237010BD00000020000000008B
:10015000880E000808B5034B1BB103490348AFF3F1
:10016000008008BD0000000004000020880E000888
:1001700080B483B000AF0346FB710B46BB711346DE
:100180007B71FB79022B00F2B680BB790F2B00F25A
:10019000B2807B790F2B00F2AE80BB79072B52D84F
:1001A000FB79022B37D0022B00F3A680002B02D064
:1001B000012B18D0A0E0534B1B68BA7992000F2195
:1001C00001FA02F2D24311464E4A0B4013604D4BE6
:1001D0001B687979BA79920001FA02F21146494A0C
:1001E0000B43136088E0484B1B68BA7992000F21DB
:1001F00001FA02F2D2431146434A0B401360424BCC
:100200001B687979BA79920001FA02F211463E4AE6
:100210000B43136070E03D4B1B68BA7992000F21CD
:1002200001FA02F2D2431146384A0B401360374BB1
:100230001B687979BA79920001FA02F21146334AC1
:100240000B43136058E0BB790F2B54D8BB79083BA4
:10025000BB71FB79022B36D0022B4DDC002B02D078
:10026000012B18D048E02A4B1B68BA7992000F2165
:1002700001FA02F2D2431146254A0B401360244B87
:100280001B687979BA79920001FA02F21146204A84
:100290000B43136030E01F4B1B68BA7992000F21AB
:1002A00001FA02F2D24311461A4A0B401360194B6D
:1002B0001B687979BA79920001FA02F21146154A5F
:1002C0000B43136018E0144B1B68BA7992000F219E
:1002D00001FA02F2D24311460F4A0B4013600E4B53
:1002E0001B687979BA79920001FA02F211460A4A3A
:1002F0000B43136000E000BF00BF0C37BD4680BC5D
:10030000704700BF00080140000C01400010014090
:1003100004080140040C01400410014080B483B083
:1003200000AF0346FB710B46BB7113467B71FB7933
:10033000022B61D8BB790F2B5ED87B79002B2DD196
:10034000FB79022B1ED0022B57DC002B02D0012B95
:100350000CD052E02B4B1B68BA79012101FA02F252
:10036000D2431146274A0B40136046E0264B1B68D8
:10037000BA79012101FA02F2D2431146224A0B4016
:1003800013603AE0214B1B68BA79012101FA02F2AD
:10039000D24311461D4A0B4013602EE07B79012B9E
:1003A0002AD1FB79022B1CD0022B26DC002B02D099
:1003B000012B0BD021E0134B1B68BA79012101FA04
:1003C00002F211460F4A0B43136016E00E4B1B68F6
:1003D000BA79012101FA02F211460B4A0B4313606C
:1003E0000BE00A4B1B68BA79012101FA02F21146AF
:1003F000064A0B43136000E000BF00BF0C37BD4648
:1004000080BC70470C0801400C0C01400C100140EE
:1004100080B400AF0A4B1B68094A43F00103136024
:10042000084B1B68074A23F001031360054B1B6848
:10043000044A23F00203136000BFBD4680BC70472E
:10044000001002400410024080B483B000AF0346A5
:100450000A46FB711346BB71BB791F2B2AD8FB7967
:10046000022B1CD0022B25DC002B02D0012B0BD041
:1004700020E0134B1B68BA79012101FA02F2114600
:100480000F4A0B43136015E00E4B1B68BA7901212C
:1004900001FA02F211460B4A0B4313600AE00A4BC1
:1004A0001B68BA79012101FA02F21146064A0B4390
:1004B000136000BF00BF0C37BD4680BC704700BF53
:1004C000141002401C1002401810024080B485B085
:1004D00000AF78600023FB6003E000BFFB680133DE
:1004E000FB607B684FF4FA7202FB03F3FA689A42EE
:1004F000F3D300BF00BF1437BD4680BC704780B542
:1005000000AF022201210020FFF732FE0222022169
:100510000020FFF72DFE022203210020FFF728FE16
:10052000022204210020FFF723FE022205210020E1
:10053000FFF71EFE022206210020FFF719FE02220D
:1005400007210020FFF714FE022208210020FFF7F8
:100550000FFE022209210020FFF70AFE02220A21D3
:100560000020FFF705FE002209210020FFF7D6FE3C
:1005700000220A210020FFF7D1FE00BF80BD00004D
:1005800080B584B000AF0346FB71FB79632B00F2AA
:10059000A883FA79CF4BA3FB0213D9080B469B0023
:1005A0000B445B00D31AFB72FB79CA4AA2FB0323FC
:1005B000DB08BB720023FB608EE3FB7A092B00F2A1
:1005C000B48101A252F823F0F105000843060008A7
:1005D00095060008E7060008390700088B070008A1
:1005E000DD0700082F08000881080008D908000866
:1005F000012201210020FFF791FE012202210020AB
:10060000FFF78CFE012203210020FFF787FE012265
:1006100004210020FFF782FE012205210020FFF7C0
:100620007DFE012206210020FFF778FE002207212F
:100630000020FFF773FE002208210020FFF76EFE66
:1006400073E1002201210020FFF768FE0122022150
:100650000020FFF763FE012203210020FFF75EFE6A
:10066000002204210020FFF759FE0022052100206E
:10067000FFF754FE002206210020FFF74FFE002264
:1006800007210020FFF74AFE002208210020FFF783
:1006900045FE4AE1012201210020FFF73FFE012231
:1006A00002210020FFF73AFE002203210020FFF77D
:1006B00035FE012204210020FFF730FE0122052132
:1006C0000020FFF72BFE002206210020FFF726FE68
:1006D000012207210020FFF721FE0022082100202F
:1006E000FFF71CFE21E1012201210020FFF716FE89
:1006F000012202210020FFF711FE01220321002028
:10070000FFF70CFE012204210020FFF707FE002264
:1007100005210020FFF702FE002206210020FFF73E
:10072000FDFD012207210020FFF7F8FD002208212E
:100730000020FFF7F3FDF8E0002201210020FFF781
:10074000EDFD012202210020FFF7E8FD0122032137
:100750000020FFF7E3FD002204210020FFF7DEFD6B
:10076000002205210020FFF7D9FD012206210020EB
:10077000FFF7D4FD012207210020FFF7CFFD002263
:1007800008210020FFF7CAFDCFE00122012100204F
:10079000FFF7C4FD002202210020FFF7BFFD012268
:1007A00003210020FFF7BAFD012204210020FFF7FA
:1007B000B5FD002205210020FFF7B0FD0122062132
:1007C0000020FFF7ABFD012207210020FFF7A6FD67
:1007D000002208210020FFF7A1FDA6E0012201214F
:1007E0000020FFF79BFD002202210020FFF796FD6D
:1007F000012203210020FFF791FD012204210020A6
:10080000FFF78CFD012205210020FFF787FD012263
:1008100006210020FFF782FD012207210020FFF7BB
:100820007DFD002208210020FFF778FD7DE00122F8
:1008300001210020FFF772FD012202210020FFF7B5
:100840006DFD012203210020FFF768FD0022042135
:100850000020FFF763FD002205210020FFF75EFD69
:10086000002206210020FFF759FD00220721002069
:10087000FFF754FD002208210020FFF74FFD54E050
:10088000012201210020FFF749FD01220221002061
:10089000FFF744FD012203210020FFF73FFD012265
:1008A00004210020FFF73AFD012205210020FFF777
:1008B00035FD012206210020FFF730FD012207212E
:1008C0000020FFF72BFD002208210020FFF726FD66
:1008D0002BE000BFCDCCCCCC012201210020FFF7C2
:1008E0001DFD012202210020FFF718FD0122032136
:1008F0000020FFF713FD012204210020FFF70EFD69
:10090000002205210020FFF709FD01220621002019
:10091000FFF704FD012207210020FFF7FFFC002262
:1009200008210020FFF7FAFC00BF01220921002066
:10093000FFF7F4FC00220A210020FFF7EFFC6420FF
:10094000FFF7C4FD002209210020FFF7E7FCBB7A76
:10095000092B00F2B18101A252F823F085090008A9
:10096000D7090008290A00087B0A0008CD0A0008F8
:100970001F0B0008710B0008C30B0008150C0008C2
:10098000670C0008012201210020FFF7C7FC0122AB
:1009900002210020FFF7C2FC012203210020FFF703
:1009A000BDFC012204210020FFF7B8FC0122052133
:1009B0000020FFF7B3FC012206210020FFF7AEFC68
:1009C000002207210020FFF7A9FC002208210020B7
:1009D000FFF7A4FC70E1002201210020FFF79EFC3C
:1009E000012202210020FFF799FC012203210020AF
:1009F000FFF794FC002204210020FFF78FFC002267
:100A000005210020FFF78AFC002206210020FFF7C5
:100A100085FC002207210020FFF780FC002208212E
:100A20000020FFF77BFC47E1012201210020FFF7B6
:100A300075FC012202210020FFF770FC0022032137
:100A40000020FFF76BFC012204210020FFF766FC69
:100A5000012205210020FFF761FC00220621002071
:100A6000FFF75CFC012207210020FFF757FC002262
:100A700008210020FFF752FC1EE101220121002085
:100A8000FFF74CFC012202210020FFF747FC012266
:100A900003210020FFF742FC012204210020FFF780
:100AA0003DFC002205210020FFF738FC0022062132
:100AB0000020FFF733FC012207210020FFF72EFC66
:100AC000002208210020FFF729FCF5E00022012187
:100AD0000020FFF723FC012202210020FFF71EFC6B
:100AE000012203210020FFF719FC0022042100202D
:100AF000FFF714FC002205210020FFF70FFC012264
:100B000006210020FFF70AFC012207210020FFF741
:100B100005FC002208210020FFF700FCCCE00122A8
:100B200001210020FFF7FAFB002202210020FFF73D
:100B3000F5FB012203210020FFF7F0FB0122042135
:100B40000020FFF7EBFB002205210020FFF7E6FB6A
:100B5000012206210020FFF7E1FB012207210020EE
:100B6000FFF7DCFB002208210020FFF7D7FBA3E002
:100B7000012201210020FFF7D1FB002202210020E9
:100B8000FFF7CCFB012203210020FFF7C7FB012266
:100B900004210020FFF7C2FB012205210020FFF7FE
:100BA000BDFB012206210020FFF7B8FB012207212F
:100BB0000020FFF7B3FB002208210020FFF7AEFB67
:100BC0007AE0012201210020FFF7A8FB0122022187
:100BD0000020FFF7A3FB012203210020FFF79EFB6B
:100BE000002204210020FFF799FB002205210020AC
:100BF000FFF794FB002206210020FFF78FFB002265
:100C000007210020FFF78AFB002208210020FFF7C0
:100C100085FB51E0012201210020FFF77FFB01222B
:100C200002210020FFF77AFB012203210020FFF7B9
:100C300075FB012204210020FFF770FB0122052132
:100C40000020FFF76BFB012206210020FFF766FB67
:100C5000012207210020FFF761FB0022082100206C
:100C6000FFF75CFB28E0012201210020FFF756FB83
:100C7000012202210020FFF751FB01220321002065
:100C8000FFF74CFB012204210020FFF747FB002265
:100C900005210020FFF742FB012206210020FFF77B
:100CA0003DFB012207210020FFF738FB002208212D
:100CB0000020FFF733FB00BF01220A210020FFF7CD
:100CC0002DFB6420FFF702FC00220A210020FFF721
:100CD00025FBFB680133FB60FB68312B7FF66DACB5
:100CE00000E000BF1037BD4680BD00BF80B500AF3B
:100CF000FFF78EFB02210220FFF7A6FB0321022053
:100D0000FFF7A2FB04210220FFF79EFBFFF7F7FB92
:100D1000022208210120FFF72BFA022209210120DB
:100D2000FFF726FA02220A210120FFF721FA2C4BB5
:100D30003C221A700FE0012208210120FFF7EEFA91
:100D4000274B1B781846FFF71BFC254B1B78013BF4
:100D5000DAB2234B1A70224B1B78002BEBD1002206
:100D600008210120FFF7DAFA1E4B3C221A700FE02F
:100D7000012209210120FFF7D1FA1A4B1B781846EE
:100D8000FFF7FEFB174B1B78013BDAB2154B1A70CD
:100D9000144B1B78002BEBD1002209210120FFF717
:100DA000BDFA114B3C221A700FE001220A210120EA
:100DB000FFF7B4FA0C4B1B781846FFF7E1FB0A4B20
:100DC0001B78013BDAB2084B1A70074B1B78002BDB
:100DD000EBD100220A210120FFF7A0FAA7E700BF0C
:100DE0001C0000201D0000201E0000200D4885462C
:100DF000AFF300800C480D490D4A002302E0D4589F
:100E0000C4500433C4188C42F9D30A4A0A4C002354
:100E100001E013600432A242FBD300F011F8FFF7A7
:100E200065FFFEE7005000200000002000000020C9
:100E3000A80E00080000002020000020FEE70000AF
:100E400070B500260C4D0D4C641BA410A64209D1B0
:100E500000F01AF800260A4D0A4C641BA410A642A2
:100E600005D170BD55F8043B98470136EEE755F8BB
:100E7000043B98470136F2E7A00E0008A00E0008D8
:100E8000A00E0008A40E0008F8B500BFF8BC08BC0E
:100E90009E467047F8B500BFF8BC08BC9E46704738
:040EA00055010008F0
:040EA4003101000810
:0400000508000DEDF5
:00000001FF
